{
  "_format": "hh-sol-artifact-1",
  "contractName": "Rectangles",
  "sourceName": "contracts/Rectangles.sol",
  "abi": [
    {
      "inputs": [],
      "stateMutability": "nonpayable",
      "type": "constructor"
    },
    {
      "anonymous": false,
      "inputs": [
        {
          "indexed": true,
          "internalType": "address",
          "name": "owner",
          "type": "address"
        },
        {
          "indexed": true,
          "internalType": "address",
          "name": "approved",
          "type": "address"
        },
        {
          "indexed": true,
          "internalType": "uint256",
          "name": "tokenId",
          "type": "uint256"
        }
      ],
      "name": "Approval",
      "type": "event"
    },
    {
      "anonymous": false,
      "inputs": [
        {
          "indexed": true,
          "internalType": "address",
          "name": "owner",
          "type": "address"
        },
        {
          "indexed": true,
          "internalType": "address",
          "name": "operator",
          "type": "address"
        },
        {
          "indexed": false,
          "internalType": "bool",
          "name": "approved",
          "type": "bool"
        }
      ],
      "name": "ApprovalForAll",
      "type": "event"
    },
    {
      "anonymous": false,
      "inputs": [
        {
          "indexed": true,
          "internalType": "address",
          "name": "previousOwner",
          "type": "address"
        },
        {
          "indexed": true,
          "internalType": "address",
          "name": "newOwner",
          "type": "address"
        }
      ],
      "name": "OwnershipTransferred",
      "type": "event"
    },
    {
      "anonymous": false,
      "inputs": [
        {
          "indexed": true,
          "internalType": "address",
          "name": "from",
          "type": "address"
        },
        {
          "indexed": true,
          "internalType": "address",
          "name": "to",
          "type": "address"
        },
        {
          "indexed": true,
          "internalType": "uint256",
          "name": "tokenId",
          "type": "uint256"
        }
      ],
      "name": "Transfer",
      "type": "event"
    },
    {
      "inputs": [
        {
          "internalType": "uint8",
          "name": "x",
          "type": "uint8"
        },
        {
          "internalType": "uint8",
          "name": "y",
          "type": "uint8"
        },
        {
          "internalType": "uint8",
          "name": "w",
          "type": "uint8"
        },
        {
          "internalType": "uint8",
          "name": "h",
          "type": "uint8"
        },
        {
          "internalType": "uint8",
          "name": "c",
          "type": "uint8"
        },
        {
          "internalType": "uint8",
          "name": "b",
          "type": "uint8"
        }
      ],
      "name": "_mint",
      "outputs": [],
      "stateMutability": "nonpayable",
      "type": "function"
    },
    {
      "inputs": [],
      "name": "_pause",
      "outputs": [],
      "stateMutability": "nonpayable",
      "type": "function"
    },
    {
      "inputs": [],
      "name": "_unpause",
      "outputs": [],
      "stateMutability": "nonpayable",
      "type": "function"
    },
    {
      "inputs": [
        {
          "internalType": "address",
          "name": "to",
          "type": "address"
        },
        {
          "internalType": "uint256",
          "name": "tokenId",
          "type": "uint256"
        }
      ],
      "name": "approve",
      "outputs": [],
      "stateMutability": "nonpayable",
      "type": "function"
    },
    {
      "inputs": [
        {
          "internalType": "address",
          "name": "owner",
          "type": "address"
        }
      ],
      "name": "balanceOf",
      "outputs": [
        {
          "internalType": "uint256",
          "name": "",
          "type": "uint256"
        }
      ],
      "stateMutability": "view",
      "type": "function"
    },
    {
      "inputs": [
        {
          "internalType": "uint256",
          "name": "",
          "type": "uint256"
        }
      ],
      "name": "creators",
      "outputs": [
        {
          "internalType": "address",
          "name": "",
          "type": "address"
        }
      ],
      "stateMutability": "view",
      "type": "function"
    },
    {
      "inputs": [
        {
          "internalType": "uint256",
          "name": "tokenId",
          "type": "uint256"
        }
      ],
      "name": "getApproved",
      "outputs": [
        {
          "internalType": "address",
          "name": "",
          "type": "address"
        }
      ],
      "stateMutability": "view",
      "type": "function"
    },
    {
      "inputs": [
        {
          "internalType": "uint256",
          "name": "sIdx",
          "type": "uint256"
        },
        {
          "internalType": "uint256",
          "name": "len",
          "type": "uint256"
        }
      ],
      "name": "getCreators",
      "outputs": [
        {
          "internalType": "address[]",
          "name": "",
          "type": "address[]"
        }
      ],
      "stateMutability": "view",
      "type": "function"
    },
    {
      "inputs": [
        {
          "internalType": "uint8",
          "name": "colIdx",
          "type": "uint8"
        }
      ],
      "name": "getHex",
      "outputs": [
        {
          "internalType": "bytes",
          "name": "",
          "type": "bytes"
        }
      ],
      "stateMutability": "pure",
      "type": "function"
    },
    {
      "inputs": [
        {
          "internalType": "uint256",
          "name": "sIdx",
          "type": "uint256"
        },
        {
          "internalType": "uint256",
          "name": "len",
          "type": "uint256"
        }
      ],
      "name": "getTokens",
      "outputs": [
        {
          "components": [
            {
              "internalType": "uint8",
              "name": "x",
              "type": "uint8"
            },
            {
              "internalType": "uint8",
              "name": "y",
              "type": "uint8"
            },
            {
              "internalType": "uint8",
              "name": "w",
              "type": "uint8"
            },
            {
              "internalType": "uint8",
              "name": "h",
              "type": "uint8"
            },
            {
              "internalType": "uint8",
              "name": "color",
              "type": "uint8"
            },
            {
              "internalType": "uint8",
              "name": "blink",
              "type": "uint8"
            }
          ],
          "internalType": "struct Rectangles.TokenData[]",
          "name": "",
          "type": "tuple[]"
        }
      ],
      "stateMutability": "view",
      "type": "function"
    },
    {
      "inputs": [
        {
          "internalType": "address",
          "name": "owner",
          "type": "address"
        },
        {
          "internalType": "address",
          "name": "operator",
          "type": "address"
        }
      ],
      "name": "isApprovedForAll",
      "outputs": [
        {
          "internalType": "bool",
          "name": "",
          "type": "bool"
        }
      ],
      "stateMutability": "view",
      "type": "function"
    },
    {
      "inputs": [
        {
          "internalType": "uint8",
          "name": "x",
          "type": "uint8"
        },
        {
          "internalType": "uint8",
          "name": "y",
          "type": "uint8"
        },
        {
          "internalType": "uint8",
          "name": "w",
          "type": "uint8"
        },
        {
          "internalType": "uint8",
          "name": "h",
          "type": "uint8"
        },
        {
          "internalType": "uint8",
          "name": "c",
          "type": "uint8"
        },
        {
          "internalType": "uint8",
          "name": "b",
          "type": "uint8"
        }
      ],
      "name": "mint",
      "outputs": [],
      "stateMutability": "payable",
      "type": "function"
    },
    {
      "inputs": [],
      "name": "name",
      "outputs": [
        {
          "internalType": "string",
          "name": "",
          "type": "string"
        }
      ],
      "stateMutability": "view",
      "type": "function"
    },
    {
      "inputs": [],
      "name": "owner",
      "outputs": [
        {
          "internalType": "address",
          "name": "",
          "type": "address"
        }
      ],
      "stateMutability": "view",
      "type": "function"
    },
    {
      "inputs": [
        {
          "internalType": "uint256",
          "name": "tokenId",
          "type": "uint256"
        }
      ],
      "name": "ownerOf",
      "outputs": [
        {
          "internalType": "address",
          "name": "",
          "type": "address"
        }
      ],
      "stateMutability": "view",
      "type": "function"
    },
    {
      "inputs": [],
      "name": "renounceOwnership",
      "outputs": [],
      "stateMutability": "nonpayable",
      "type": "function"
    },
    {
      "inputs": [
        {
          "internalType": "address",
          "name": "from",
          "type": "address"
        },
        {
          "internalType": "address",
          "name": "to",
          "type": "address"
        },
        {
          "internalType": "uint256",
          "name": "tokenId",
          "type": "uint256"
        }
      ],
      "name": "safeTransferFrom",
      "outputs": [],
      "stateMutability": "nonpayable",
      "type": "function"
    },
    {
      "inputs": [
        {
          "internalType": "address",
          "name": "from",
          "type": "address"
        },
        {
          "internalType": "address",
          "name": "to",
          "type": "address"
        },
        {
          "internalType": "uint256",
          "name": "tokenId",
          "type": "uint256"
        },
        {
          "internalType": "bytes",
          "name": "data",
          "type": "bytes"
        }
      ],
      "name": "safeTransferFrom",
      "outputs": [],
      "stateMutability": "nonpayable",
      "type": "function"
    },
    {
      "inputs": [
        {
          "internalType": "address",
          "name": "operator",
          "type": "address"
        },
        {
          "internalType": "bool",
          "name": "approved",
          "type": "bool"
        }
      ],
      "name": "setApprovalForAll",
      "outputs": [],
      "stateMutability": "nonpayable",
      "type": "function"
    },
    {
      "inputs": [
        {
          "internalType": "uint256",
          "name": "id",
          "type": "uint256"
        },
        {
          "internalType": "uint8",
          "name": "x",
          "type": "uint8"
        },
        {
          "internalType": "uint8",
          "name": "y",
          "type": "uint8"
        },
        {
          "internalType": "uint8",
          "name": "w",
          "type": "uint8"
        },
        {
          "internalType": "uint8",
          "name": "h",
          "type": "uint8"
        },
        {
          "internalType": "uint8",
          "name": "color",
          "type": "uint8"
        },
        {
          "internalType": "uint8",
          "name": "blink",
          "type": "uint8"
        }
      ],
      "name": "setTokenData",
      "outputs": [],
      "stateMutability": "nonpayable",
      "type": "function"
    },
    {
      "inputs": [
        {
          "internalType": "bytes4",
          "name": "interfaceId",
          "type": "bytes4"
        }
      ],
      "name": "supportsInterface",
      "outputs": [
        {
          "internalType": "bool",
          "name": "",
          "type": "bool"
        }
      ],
      "stateMutability": "view",
      "type": "function"
    },
    {
      "inputs": [],
      "name": "symbol",
      "outputs": [
        {
          "internalType": "string",
          "name": "",
          "type": "string"
        }
      ],
      "stateMutability": "view",
      "type": "function"
    },
    {
      "inputs": [
        {
          "internalType": "uint256",
          "name": "index",
          "type": "uint256"
        }
      ],
      "name": "tokenByIndex",
      "outputs": [
        {
          "internalType": "uint256",
          "name": "",
          "type": "uint256"
        }
      ],
      "stateMutability": "view",
      "type": "function"
    },
    {
      "inputs": [
        {
          "internalType": "address",
          "name": "owner",
          "type": "address"
        },
        {
          "internalType": "uint256",
          "name": "index",
          "type": "uint256"
        }
      ],
      "name": "tokenOfOwnerByIndex",
      "outputs": [
        {
          "internalType": "uint256",
          "name": "",
          "type": "uint256"
        }
      ],
      "stateMutability": "view",
      "type": "function"
    },
    {
      "inputs": [
        {
          "internalType": "uint256",
          "name": "_id",
          "type": "uint256"
        }
      ],
      "name": "tokenURI",
      "outputs": [
        {
          "internalType": "string",
          "name": "",
          "type": "string"
        }
      ],
      "stateMutability": "view",
      "type": "function"
    },
    {
      "inputs": [],
      "name": "totalSupply",
      "outputs": [
        {
          "internalType": "uint256",
          "name": "",
          "type": "uint256"
        }
      ],
      "stateMutability": "view",
      "type": "function"
    },
    {
      "inputs": [
        {
          "internalType": "address",
          "name": "from",
          "type": "address"
        },
        {
          "internalType": "address",
          "name": "to",
          "type": "address"
        },
        {
          "internalType": "uint256",
          "name": "tokenId",
          "type": "uint256"
        }
      ],
      "name": "transferFrom",
      "outputs": [],
      "stateMutability": "nonpayable",
      "type": "function"
    },
    {
      "inputs": [
        {
          "internalType": "address",
          "name": "newOwner",
          "type": "address"
        }
      ],
      "name": "transferOwnership",
      "outputs": [],
      "stateMutability": "nonpayable",
      "type": "function"
    },
    {
      "inputs": [],
      "name": "withdrawAll",
      "outputs": [],
      "stateMutability": "nonpayable",
      "type": "function"
    }
  ],
  "bytecode": "0x60806040526000600b556064600c553480156200001b57600080fd5b506040518060400160405280600c81526020017f36342052656374616e676c6500000000000000000000000000000000000000008152506040518060400160405280600581526020017f52454354530000000000000000000000000000000000000000000000000000008152508160009080519060200190620000a0929190620001cb565b508060019080519060200190620000b9929190620001cb565b505050620000dc620000d0620000fd60201b60201c565b6200010560201b60201c565b6000600f60006101000a81548160ff021916908315150217905550620002e0565b600033905090565b6000600a60009054906101000a900473ffffffffffffffffffffffffffffffffffffffff16905081600a60006101000a81548173ffffffffffffffffffffffffffffffffffffffff021916908373ffffffffffffffffffffffffffffffffffffffff1602179055508173ffffffffffffffffffffffffffffffffffffffff168173ffffffffffffffffffffffffffffffffffffffff167f8be0079c531659141344cd1fd0a4f28419497f9722a3daafe3b4186f6b6457e060405160405180910390a35050565b828054620001d990620002aa565b90600052602060002090601f016020900481019282620001fd576000855562000249565b82601f106200021857805160ff191683800117855562000249565b8280016001018555821562000249579182015b82811115620002485782518255916020019190600101906200022b565b5b5090506200025891906200025c565b5090565b5b80821115620002775760008160009055506001016200025d565b5090565b7f4e487b7100000000000000000000000000000000000000000000000000000000600052602260045260246000fd5b60006002820490506001821680620002c357607f821691505b60208210811415620002da57620002d96200027b565b5b50919050565b615e0980620002f06000396000f3fe6080604052600436106101c25760003560e01c806370a08231116100f7578063b88d4fde11610095578063ed72938811610064578063ed7293881461068a578063f027c3c8146106a6578063f2fde38b146106cf578063fc8234cb146106f8576101c2565b8063b88d4fde146105aa578063c87b56dd146105d3578063cd53d08e14610610578063e985e9c51461064d576101c2565b8063853828b6116100d1578063853828b6146105145780638da5cb5b1461052b57806395d89b4114610556578063a22cb46514610581576101c2565b806370a0823114610483578063715018a6146104c057806383c63e72146104d7576101c2565b8063320b2ad911610164578063494cfc6c1161013e578063494cfc6c1461038f5780634f6ccce7146103cc5780635ac8d444146104095780636352211e14610446576101c2565b8063320b2ad91461032657806342842e0e1461033d57806344c6bb1f14610366576101c2565b8063095ea7b3116101a0578063095ea7b31461026c57806318160ddd1461029557806323b872dd146102c05780632f745c59146102e9576101c2565b806301ffc9a7146101c757806306fdde0314610204578063081812fc1461022f575b600080fd5b3480156101d357600080fd5b506101ee60048036038101906101e9919061337d565b61070f565b6040516101fb91906133c5565b60405180910390f35b34801561021057600080fd5b50610219610789565b6040516102269190613479565b60405180910390f35b34801561023b57600080fd5b50610256600480360381019061025191906134d1565b61081b565b604051610263919061353f565b60405180910390f35b34801561027857600080fd5b50610293600480360381019061028e9190613586565b610861565b005b3480156102a157600080fd5b506102aa610979565b6040516102b791906135d5565b60405180910390f35b3480156102cc57600080fd5b506102e760048036038101906102e291906135f0565b610986565b005b3480156102f557600080fd5b50610310600480360381019061030b9190613586565b6109e6565b60405161031d91906135d5565b60405180910390f35b34801561033257600080fd5b5061033b610a8b565b005b34801561034957600080fd5b50610364600480360381019061035f91906135f0565b610ab0565b005b34801561037257600080fd5b5061038d6004803603810190610388919061367c565b610ad0565b005b34801561039b57600080fd5b506103b660048036038101906103b1919061371e565b610c96565b6040516103c39190613897565b60405180910390f35b3480156103d857600080fd5b506103f360048036038101906103ee91906134d1565b610e0c565b60405161040091906135d5565b60405180910390f35b34801561041557600080fd5b50610430600480360381019061042b919061371e565b610e7d565b60405161043d9190613977565b60405180910390f35b34801561045257600080fd5b5061046d600480360381019061046891906134d1565b610f7f565b60405161047a919061353f565b60405180910390f35b34801561048f57600080fd5b506104aa60048036038101906104a59190613999565b611006565b6040516104b791906135d5565b60405180910390f35b3480156104cc57600080fd5b506104d56110be565b005b3480156104e357600080fd5b506104fe60048036038101906104f991906139c6565b6110d2565b60405161050b9190613a48565b60405180910390f35b34801561052057600080fd5b5061052961136c565b005b34801561053757600080fd5b506105406113c1565b60405161054d919061353f565b60405180910390f35b34801561056257600080fd5b5061056b6113eb565b6040516105789190613479565b60405180910390f35b34801561058d57600080fd5b506105a860048036038101906105a39190613a96565b61147d565b005b3480156105b657600080fd5b506105d160048036038101906105cc9190613c0b565b611493565b005b3480156105df57600080fd5b506105fa60048036038101906105f591906134d1565b6114f5565b6040516106079190613479565b60405180910390f35b34801561061c57600080fd5b50610637600480360381019061063291906134d1565b6115b6565b604051610644919061353f565b60405180910390f35b34801561065957600080fd5b50610674600480360381019061066f9190613c8e565b6115e9565b60405161068191906133c5565b60405180910390f35b6106a4600480360381019061069f9190613cce565b61167d565b005b3480156106b257600080fd5b506106cd60048036038101906106c89190613cce565b6117d4565b005b3480156106db57600080fd5b506106f660048036038101906106f19190613999565b611853565b005b34801561070457600080fd5b5061070d6118d7565b005b60007f780e9d63000000000000000000000000000000000000000000000000000000007bffffffffffffffffffffffffffffffffffffffffffffffffffffffff1916827bffffffffffffffffffffffffffffffffffffffffffffffffffffffff191614806107825750610781826118fc565b5b9050919050565b60606000805461079890613d8a565b80601f01602080910402602001604051908101604052809291908181526020018280546107c490613d8a565b80156108115780601f106107e657610100808354040283529160200191610811565b820191906000526020600020905b8154815290600101906020018083116107f457829003601f168201915b5050505050905090565b6000610826826119de565b6004600083815260200190815260200160002060009054906101000a900473ffffffffffffffffffffffffffffffffffffffff169050919050565b600061086c82610f7f565b90508073ffffffffffffffffffffffffffffffffffffffff168373ffffffffffffffffffffffffffffffffffffffff1614156108dd576040517f08c379a00000000000000000000000000000000000000000000000000000000081526004016108d490613e2e565b60405180910390fd5b8073ffffffffffffffffffffffffffffffffffffffff166108fc611a29565b73ffffffffffffffffffffffffffffffffffffffff16148061092b575061092a81610925611a29565b6115e9565b5b61096a576040517f08c379a000000000000000000000000000000000000000000000000000000000815260040161096190613ec0565b60405180910390fd5b6109748383611a31565b505050565b6000600880549050905090565b610997610991611a29565b82611aea565b6109d6576040517f08c379a00000000000000000000000000000000000000000000000000000000081526004016109cd90613f52565b60405180910390fd5b6109e1838383611b7f565b505050565b60006109f183611006565b8210610a32576040517f08c379a0000000000000000000000000000000000000000000000000000000008152600401610a2990613fe4565b60405180910390fd5b600660008473ffffffffffffffffffffffffffffffffffffffff1673ffffffffffffffffffffffffffffffffffffffff168152602001908152602001600020600083815260200190815260200160002054905092915050565b610a93611e79565b6001600f60006101000a81548160ff021916908315150217905550565b610acb83838360405180602001604052806000815250611493565b505050565b863373ffffffffffffffffffffffffffffffffffffffff16600d600083815260200190815260200160002060009054906101000a900473ffffffffffffffffffffffffffffffffffffffff1673ffffffffffffffffffffffffffffffffffffffff1614610b72576040517f08c379a0000000000000000000000000000000000000000000000000000000008152600401610b6990614076565b60405180910390fd5b86600e60008a815260200190815260200160002060000160006101000a81548160ff021916908360ff16021790555085600e60008a815260200190815260200160002060000160016101000a81548160ff021916908360ff16021790555084600e60008a815260200190815260200160002060000160026101000a81548160ff021916908360ff16021790555083600e60008a815260200190815260200160002060000160036101000a81548160ff021916908360ff16021790555082600e60008a815260200190815260200160002060000160046101000a81548160ff021916908360ff16021790555081600e60008a815260200190815260200160002060000160056101000a81548160ff021916908360ff1602179055505050505050505050565b606060008267ffffffffffffffff811115610cb457610cb3613ae0565b5b604051908082528060200260200182016040528015610ced57816020015b610cda6132c9565b815260200190600190039081610cd25790505b50905060005b83811015610e0157600e60008287610d0b91906140c5565b81526020019081526020016000206040518060c00160405290816000820160009054906101000a900460ff1660ff1660ff1681526020016000820160019054906101000a900460ff1660ff1660ff1681526020016000820160029054906101000a900460ff1660ff1660ff1681526020016000820160039054906101000a900460ff1660ff1660ff1681526020016000820160049054906101000a900460ff1660ff1660ff1681526020016000820160059054906101000a900460ff1660ff1660ff1681525050828281518110610de557610de461411b565b5b602002602001018190525080610dfa9061414a565b9050610cf3565b508091505092915050565b6000610e16610979565b8210610e57576040517f08c379a0000000000000000000000000000000000000000000000000000000008152600401610e4e90614205565b60405180910390fd5b60088281548110610e6b57610e6a61411b565b5b90600052602060002001549050919050565b606060008267ffffffffffffffff811115610e9b57610e9a613ae0565b5b604051908082528060200260200182016040528015610ec95781602001602082028036833780820191505090505b50905060005b83811015610f7457600d60008287610ee791906140c5565b815260200190815260200160002060009054906101000a900473ffffffffffffffffffffffffffffffffffffffff16828281518110610f2957610f2861411b565b5b602002602001019073ffffffffffffffffffffffffffffffffffffffff16908173ffffffffffffffffffffffffffffffffffffffff168152505080610f6d9061414a565b9050610ecf565b508091505092915050565b600080610f8b83611ef7565b9050600073ffffffffffffffffffffffffffffffffffffffff168173ffffffffffffffffffffffffffffffffffffffff161415610ffd576040517f08c379a0000000000000000000000000000000000000000000000000000000008152600401610ff490614271565b60405180910390fd5b80915050919050565b60008073ffffffffffffffffffffffffffffffffffffffff168273ffffffffffffffffffffffffffffffffffffffff161415611077576040517f08c379a000000000000000000000000000000000000000000000000000000000815260040161106e90614303565b60405180910390fd5b600360008373ffffffffffffffffffffffffffffffffffffffff1673ffffffffffffffffffffffffffffffffffffffff168152602001908152602001600020549050919050565b6110c6611e79565b6110d06000611f34565b565b606060008067ffffffffffffffff8111156110f0576110ef613ae0565b5b6040519080825280601f01601f1916602001820160405280156111225781602001600182028036833780820191505090505b50905060018360ff16141561116e576040518060400160405280600481526020017f23663030000000000000000000000000000000000000000000000000000000008152509050611363565b60028360ff1614156111b7576040518060400160405280600481526020017f23306630000000000000000000000000000000000000000000000000000000008152509050611362565b60038360ff161415611200576040518060400160405280600481526020017f23303066000000000000000000000000000000000000000000000000000000008152509050611361565b60048360ff161415611249576040518060400160405280600481526020017f23666630000000000000000000000000000000000000000000000000000000008152509050611360565b60058360ff161415611292576040518060400160405280600481526020017f2366306600000000000000000000000000000000000000000000000000000000815250905061135f565b60068360ff1614156112db576040518060400160405280600481526020017f2330666600000000000000000000000000000000000000000000000000000000815250905061135e565b60078360ff161415611324576040518060400160405280600481526020017f2366666600000000000000000000000000000000000000000000000000000000815250905061135d565b6040518060400160405280600481526020017f233030300000000000000000000000000000000000000000000000000000000081525090505b5b5b5b5b5b5b80915050919050565b611374611e79565b60004790506113816113c1565b73ffffffffffffffffffffffffffffffffffffffff166108fc829081150290604051600060405180830381858888f193505050506113be57600080fd5b50565b6000600a60009054906101000a900473ffffffffffffffffffffffffffffffffffffffff16905090565b6060600180546113fa90613d8a565b80601f016020809104026020016040519081016040528092919081815260200182805461142690613d8a565b80156114735780601f1061144857610100808354040283529160200191611473565b820191906000526020600020905b81548152906001019060200180831161145657829003601f168201915b5050505050905090565b61148f611488611a29565b8383611ffa565b5050565b6114a461149e611a29565b83611aea565b6114e3576040517f08c379a00000000000000000000000000000000000000000000000000000000081526004016114da90613f52565b60405180910390fd5b6114ef84848484612167565b50505050565b6060611500826121c3565b61153f576040517f08c379a000000000000000000000000000000000000000000000000000000000815260040161153690614395565b60405180910390fd5b600061154a83612204565b61155b611556856122dc565b61247a565b61156b6115666125de565b61247a565b60405160200161157d9392919061469d565b60405160208183030381529060405290508060405160200161159f91906147a3565b604051602081830303815290604052915050919050565b600d6020528060005260406000206000915054906101000a900473ffffffffffffffffffffffffffffffffffffffff1681565b6000600560008473ffffffffffffffffffffffffffffffffffffffff1673ffffffffffffffffffffffffffffffffffffffff16815260200190815260200160002060008373ffffffffffffffffffffffffffffffffffffffff1673ffffffffffffffffffffffffffffffffffffffff16815260200190815260200160002060009054906101000a900460ff16905092915050565b600f60009054906101000a900460ff16156116cd576040517f08c379a00000000000000000000000000000000000000000000000000000000081526004016116c490614811565b60405180910390fd5b600c546116d8610979565b10611718576040517f08c379a000000000000000000000000000000000000000000000000000000000815260040161170f9061487d565b60405180910390fd5b600b5434101561175d576040517f08c379a0000000000000000000000000000000000000000000000000000000008152600401611754906148e9565b60405180910390fd5b600061176833612615565b905033600d600083815260200190815260200160002060006101000a81548173ffffffffffffffffffffffffffffffffffffffff021916908373ffffffffffffffffffffffffffffffffffffffff1602179055506117cb81888888888888610ad0565b50505050505050565b6117dc611e79565b60006117e733612615565b905033600d600083815260200190815260200160002060006101000a81548173ffffffffffffffffffffffffffffffffffffffff021916908373ffffffffffffffffffffffffffffffffffffffff16021790555061184a81888888888888610ad0565b50505050505050565b61185b611e79565b600073ffffffffffffffffffffffffffffffffffffffff168173ffffffffffffffffffffffffffffffffffffffff1614156118cb576040517f08c379a00000000000000000000000000000000000000000000000000000000081526004016118c29061497b565b60405180910390fd5b6118d481611f34565b50565b6118df611e79565b6000600f60006101000a81548160ff021916908315150217905550565b60007f80ac58cd000000000000000000000000000000000000000000000000000000007bffffffffffffffffffffffffffffffffffffffffffffffffffffffff1916827bffffffffffffffffffffffffffffffffffffffffffffffffffffffff191614806119c757507f5b5e139f000000000000000000000000000000000000000000000000000000007bffffffffffffffffffffffffffffffffffffffffffffffffffffffff1916827bffffffffffffffffffffffffffffffffffffffffffffffffffffffff1916145b806119d757506119d682612641565b5b9050919050565b6119e7816121c3565b611a26576040517f08c379a0000000000000000000000000000000000000000000000000000000008152600401611a1d90614271565b60405180910390fd5b50565b600033905090565b816004600083815260200190815260200160002060006101000a81548173ffffffffffffffffffffffffffffffffffffffff021916908373ffffffffffffffffffffffffffffffffffffffff160217905550808273ffffffffffffffffffffffffffffffffffffffff16611aa483610f7f565b73ffffffffffffffffffffffffffffffffffffffff167f8c5be1e5ebec7d5bd14f71427d1e84f3dd0314c0f7b2291e5b200ac8c7c3b92560405160405180910390a45050565b600080611af683610f7f565b90508073ffffffffffffffffffffffffffffffffffffffff168473ffffffffffffffffffffffffffffffffffffffff161480611b385750611b3781856115e9565b5b80611b7657508373ffffffffffffffffffffffffffffffffffffffff16611b5e8461081b565b73ffffffffffffffffffffffffffffffffffffffff16145b91505092915050565b8273ffffffffffffffffffffffffffffffffffffffff16611b9f82610f7f565b73ffffffffffffffffffffffffffffffffffffffff1614611bf5576040517f08c379a0000000000000000000000000000000000000000000000000000000008152600401611bec90614a0d565b60405180910390fd5b600073ffffffffffffffffffffffffffffffffffffffff168273ffffffffffffffffffffffffffffffffffffffff161415611c65576040517f08c379a0000000000000000000000000000000000000000000000000000000008152600401611c5c90614a9f565b60405180910390fd5b611c7283838360016126ab565b8273ffffffffffffffffffffffffffffffffffffffff16611c9282610f7f565b73ffffffffffffffffffffffffffffffffffffffff1614611ce8576040517f08c379a0000000000000000000000000000000000000000000000000000000008152600401611cdf90614a0d565b60405180910390fd5b6004600082815260200190815260200160002060006101000a81549073ffffffffffffffffffffffffffffffffffffffff02191690556001600360008573ffffffffffffffffffffffffffffffffffffffff1673ffffffffffffffffffffffffffffffffffffffff168152602001908152602001600020600082825403925050819055506001600360008473ffffffffffffffffffffffffffffffffffffffff1673ffffffffffffffffffffffffffffffffffffffff16815260200190815260200160002060008282540192505081905550816002600083815260200190815260200160002060006101000a81548173ffffffffffffffffffffffffffffffffffffffff021916908373ffffffffffffffffffffffffffffffffffffffff160217905550808273ffffffffffffffffffffffffffffffffffffffff168473ffffffffffffffffffffffffffffffffffffffff167fddf252ad1be2c89b69c2b068fc378daa952ba7f163c4a11628f55a4df523b3ef60405160405180910390a4611e74838383600161280b565b505050565b611e81611a29565b73ffffffffffffffffffffffffffffffffffffffff16611e9f6113c1565b73ffffffffffffffffffffffffffffffffffffffff1614611ef5576040517f08c379a0000000000000000000000000000000000000000000000000000000008152600401611eec90614b0b565b60405180910390fd5b565b60006002600083815260200190815260200160002060009054906101000a900473ffffffffffffffffffffffffffffffffffffffff169050919050565b6000600a60009054906101000a900473ffffffffffffffffffffffffffffffffffffffff16905081600a60006101000a81548173ffffffffffffffffffffffffffffffffffffffff021916908373ffffffffffffffffffffffffffffffffffffffff1602179055508173ffffffffffffffffffffffffffffffffffffffff168173ffffffffffffffffffffffffffffffffffffffff167f8be0079c531659141344cd1fd0a4f28419497f9722a3daafe3b4186f6b6457e060405160405180910390a35050565b8173ffffffffffffffffffffffffffffffffffffffff168373ffffffffffffffffffffffffffffffffffffffff161415612069576040517f08c379a000000000000000000000000000000000000000000000000000000000815260040161206090614b77565b60405180910390fd5b80600560008573ffffffffffffffffffffffffffffffffffffffff1673ffffffffffffffffffffffffffffffffffffffff16815260200190815260200160002060008473ffffffffffffffffffffffffffffffffffffffff1673ffffffffffffffffffffffffffffffffffffffff16815260200190815260200160002060006101000a81548160ff0219169083151502179055508173ffffffffffffffffffffffffffffffffffffffff168373ffffffffffffffffffffffffffffffffffffffff167f17307eab39ab6107e8899845ad3d59bd9653f200f220920489ca2b5937696c318360405161215a91906133c5565b60405180910390a3505050565b612172848484611b7f565b61217e84848484612811565b6121bd576040517f08c379a00000000000000000000000000000000000000000000000000000000081526004016121b490614c09565b60405180910390fd5b50505050565b60008073ffffffffffffffffffffffffffffffffffffffff166121e583611ef7565b73ffffffffffffffffffffffffffffffffffffffff1614159050919050565b60606000600161221384612999565b01905060008167ffffffffffffffff81111561223257612231613ae0565b5b6040519080825280601f01601f1916602001820160405280156122645781602001600182028036833780820191505090505b509050600082602001820190505b6001156122d1578080600190039150507f3031323334353637383961626364656600000000000000000000000000000000600a86061a8153600a85816122bb576122ba614c29565b5b04945060008514156122cc576122d1565b612272565b819350505050919050565b6060600061230f600e600085815260200190815260200160002060000160009054906101000a900460ff1660ff16612204565b90506000612342600e600086815260200190815260200160002060000160019054906101000a900460ff1660ff16612204565b90506000612375600e600087815260200190815260200160002060000160029054906101000a900460ff1660ff16612204565b905060006123a8600e600088815260200190815260200160002060000160039054906101000a900460ff1660ff16612204565b905060006123db600e600089815260200190815260200160002060000160059054906101000a900460ff1660ff16612204565b90506000600e600089815260200190815260200160002060000160049054906101000a900460ff1690506000600a826124149190614c58565b90506000600a836124259190614c89565b905085858989612434866110d2565b8a8a8e8e6124418a6110d2565b8d60405160200161245c9b9a99989796959493929190614ffe565b60405160208183030381529060405298505050505050505050919050565b606060008251141561249d576040518060200160405280600081525090506125d9565b6000604051806060016040528060408152602001615d9460409139905060006003600285516124cc91906140c5565b6124d6919061511b565b60046124e2919061514c565b67ffffffffffffffff8111156124fb576124fa613ae0565b5b6040519080825280601f01601f19166020018201604052801561252d5781602001600182028036833780820191505090505b509050600182016020820185865187015b80821015612599576003820191508151603f8160121c168501518453600184019350603f81600c1c168501518453600184019350603f8160061c168501518453600184019350603f811685015184536001840193505061253e565b50506003865106600181146125b557600281146125c8576125d0565b603d6001830353603d60028303536125d0565b603d60018303535b50505080925050505b919050565b60606125e8612aec565b6125f0612cba565b60405160200161260192919061545a565b604051602081830303815290604052905090565b6000806126226010612cdf565b905061262e8382612ced565b6126386010612d0b565b80915050919050565b60007f01ffc9a7000000000000000000000000000000000000000000000000000000007bffffffffffffffffffffffffffffffffffffffffffffffffffffffff1916827bffffffffffffffffffffffffffffffffffffffffffffffffffffffff1916149050919050565b6126b784848484612d21565b60018111156126fb576040517f08c379a00000000000000000000000000000000000000000000000000000000081526004016126f290615506565b60405180910390fd5b6000829050600073ffffffffffffffffffffffffffffffffffffffff168573ffffffffffffffffffffffffffffffffffffffff1614156127435761273e81612d27565b612782565b8373ffffffffffffffffffffffffffffffffffffffff168573ffffffffffffffffffffffffffffffffffffffff1614612781576127808582612d70565b5b5b600073ffffffffffffffffffffffffffffffffffffffff168473ffffffffffffffffffffffffffffffffffffffff1614156127c5576127c081612edd565b612804565b8473ffffffffffffffffffffffffffffffffffffffff168473ffffffffffffffffffffffffffffffffffffffff1614612803576128028482612fae565b5b5b5050505050565b50505050565b60006128328473ffffffffffffffffffffffffffffffffffffffff1661302d565b1561298c578373ffffffffffffffffffffffffffffffffffffffff1663150b7a0261285b611a29565b8786866040518563ffffffff1660e01b815260040161287d9493929190615526565b6020604051808303816000875af19250505080156128b957506040513d601f19601f820116820180604052508101906128b69190615587565b60015b61293c573d80600081146128e9576040519150601f19603f3d011682016040523d82523d6000602084013e6128ee565b606091505b50600081511415612934576040517f08c379a000000000000000000000000000000000000000000000000000000000815260040161292b90614c09565b60405180910390fd5b805181602001fd5b63150b7a0260e01b7bffffffffffffffffffffffffffffffffffffffffffffffffffffffff1916817bffffffffffffffffffffffffffffffffffffffffffffffffffffffff191614915050612991565b600190505b949350505050565b600080600090507a184f03e93ff9f4daa797ed6e38ed64bf6a1f01000000000000000083106129f7577a184f03e93ff9f4daa797ed6e38ed64bf6a1f01000000000000000083816129ed576129ec614c29565b5b0492506040810190505b6d04ee2d6d415b85acef81000000008310612a34576d04ee2d6d415b85acef81000000008381612a2a57612a29614c29565b5b0492506020810190505b662386f26fc100008310612a6357662386f26fc100008381612a5957612a58614c29565b5b0492506010810190505b6305f5e1008310612a8c576305f5e1008381612a8257612a81614c29565b5b0492506008810190505b6127108310612ab1576127108381612aa757612aa6614c29565b5b0492506004810190505b60648310612ad45760648381612aca57612ac9614c29565b5b0492506002810190505b600a8310612ae3576001810190505b80915050919050565b606060006040518060400160405280600b81526020017f766172206a736f6e733d5b00000000000000000000000000000000000000000081525090506000612b32610979565b905060005b81811015612c925782612b6f600e600084815260200190815260200160002060000160009054906101000a900460ff1660ff16612204565b612b9e600e600085815260200190815260200160002060000160019054906101000a900460ff1660ff16612204565b612bcd600e600086815260200190815260200160002060000160029054906101000a900460ff1660ff16612204565b612bfc600e600087815260200190815260200160002060000160039054906101000a900460ff1660ff16612204565b612c2b600e600088815260200190815260200160002060000160049054906101000a900460ff1660ff16612204565b612c5a600e600089815260200190815260200160002060000160059054906101000a900460ff1660ff16612204565b604051602001612c709796959493929190615698565b604051602081830303815290604052925080612c8b9061414a565b9050612b37565b5081604051602001612ca49190615796565b6040516020818303038152906040529250505090565b6060604051602001612ccb90615c43565b604051602081830303815290604052905090565b600081600001549050919050565b612d07828260405180602001604052806000815250613050565b5050565b6001816000016000828254019250508190555050565b50505050565b6008805490506009600083815260200190815260200160002081905550600881908060018154018082558091505060019003906000526020600020016000909190919091505550565b60006001612d7d84611006565b612d879190615c58565b9050600060076000848152602001908152602001600020549050818114612e6c576000600660008673ffffffffffffffffffffffffffffffffffffffff1673ffffffffffffffffffffffffffffffffffffffff168152602001908152602001600020600084815260200190815260200160002054905080600660008773ffffffffffffffffffffffffffffffffffffffff1673ffffffffffffffffffffffffffffffffffffffff168152602001908152602001600020600084815260200190815260200160002081905550816007600083815260200190815260200160002081905550505b6007600084815260200190815260200160002060009055600660008573ffffffffffffffffffffffffffffffffffffffff1673ffffffffffffffffffffffffffffffffffffffff16815260200190815260200160002060008381526020019081526020016000206000905550505050565b60006001600880549050612ef19190615c58565b9050600060096000848152602001908152602001600020549050600060088381548110612f2157612f2061411b565b5b906000526020600020015490508060088381548110612f4357612f4261411b565b5b906000526020600020018190555081600960008381526020019081526020016000208190555060096000858152602001908152602001600020600090556008805480612f9257612f91615c8c565b5b6001900381819060005260206000200160009055905550505050565b6000612fb983611006565b905081600660008573ffffffffffffffffffffffffffffffffffffffff1673ffffffffffffffffffffffffffffffffffffffff168152602001908152602001600020600083815260200190815260200160002081905550806007600084815260200190815260200160002081905550505050565b6000808273ffffffffffffffffffffffffffffffffffffffff163b119050919050565b61305a83836130ab565b6130676000848484612811565b6130a6576040517f08c379a000000000000000000000000000000000000000000000000000000000815260040161309d90614c09565b60405180910390fd5b505050565b600073ffffffffffffffffffffffffffffffffffffffff168273ffffffffffffffffffffffffffffffffffffffff16141561311b576040517f08c379a000000000000000000000000000000000000000000000000000000000815260040161311290615d07565b60405180910390fd5b613124816121c3565b15613164576040517f08c379a000000000000000000000000000000000000000000000000000000000815260040161315b90615d73565b60405180910390fd5b6131726000838360016126ab565b61317b816121c3565b156131bb576040517f08c379a00000000000000000000000000000000000000000000000000000000081526004016131b290615d73565b60405180910390fd5b6001600360008473ffffffffffffffffffffffffffffffffffffffff1673ffffffffffffffffffffffffffffffffffffffff16815260200190815260200160002060008282540192505081905550816002600083815260200190815260200160002060006101000a81548173ffffffffffffffffffffffffffffffffffffffff021916908373ffffffffffffffffffffffffffffffffffffffff160217905550808273ffffffffffffffffffffffffffffffffffffffff16600073ffffffffffffffffffffffffffffffffffffffff167fddf252ad1be2c89b69c2b068fc378daa952ba7f163c4a11628f55a4df523b3ef60405160405180910390a46132c560008383600161280b565b5050565b6040518060c00160405280600060ff168152602001600060ff168152602001600060ff168152602001600060ff168152602001600060ff168152602001600060ff1681525090565b6000604051905090565b600080fd5b600080fd5b60007fffffffff0000000000000000000000000000000000000000000000000000000082169050919050565b61335a81613325565b811461336557600080fd5b50565b60008135905061337781613351565b92915050565b6000602082840312156133935761339261331b565b5b60006133a184828501613368565b91505092915050565b60008115159050919050565b6133bf816133aa565b82525050565b60006020820190506133da60008301846133b6565b92915050565b600081519050919050565b600082825260208201905092915050565b60005b8381101561341a5780820151818401526020810190506133ff565b83811115613429576000848401525b50505050565b6000601f19601f8301169050919050565b600061344b826133e0565b61345581856133eb565b93506134658185602086016133fc565b61346e8161342f565b840191505092915050565b600060208201905081810360008301526134938184613440565b905092915050565b6000819050919050565b6134ae8161349b565b81146134b957600080fd5b50565b6000813590506134cb816134a5565b92915050565b6000602082840312156134e7576134e661331b565b5b60006134f5848285016134bc565b91505092915050565b600073ffffffffffffffffffffffffffffffffffffffff82169050919050565b6000613529826134fe565b9050919050565b6135398161351e565b82525050565b60006020820190506135546000830184613530565b92915050565b6135638161351e565b811461356e57600080fd5b50565b6000813590506135808161355a565b92915050565b6000806040838503121561359d5761359c61331b565b5b60006135ab85828601613571565b92505060206135bc858286016134bc565b9150509250929050565b6135cf8161349b565b82525050565b60006020820190506135ea60008301846135c6565b92915050565b6000806000606084860312156136095761360861331b565b5b600061361786828701613571565b935050602061362886828701613571565b9250506040613639868287016134bc565b9150509250925092565b600060ff82169050919050565b61365981613643565b811461366457600080fd5b50565b60008135905061367681613650565b92915050565b600080600080600080600060e0888a03121561369b5761369a61331b565b5b60006136a98a828b016134bc565b97505060206136ba8a828b01613667565b96505060406136cb8a828b01613667565b95505060606136dc8a828b01613667565b94505060806136ed8a828b01613667565b93505060a06136fe8a828b01613667565b92505060c061370f8a828b01613667565b91505092959891949750929550565b600080604083850312156137355761373461331b565b5b6000613743858286016134bc565b9250506020613754858286016134bc565b9150509250929050565b600081519050919050565b600082825260208201905092915050565b6000819050602082019050919050565b61379381613643565b82525050565b60c0820160008201516137af600085018261378a565b5060208201516137c2602085018261378a565b5060408201516137d5604085018261378a565b5060608201516137e8606085018261378a565b5060808201516137fb608085018261378a565b5060a082015161380e60a085018261378a565b50505050565b60006138208383613799565b60c08301905092915050565b6000602082019050919050565b60006138448261375e565b61384e8185613769565b93506138598361377a565b8060005b8381101561388a5781516138718882613814565b975061387c8361382c565b92505060018101905061385d565b5085935050505092915050565b600060208201905081810360008301526138b18184613839565b905092915050565b600081519050919050565b600082825260208201905092915050565b6000819050602082019050919050565b6138ee8161351e565b82525050565b600061390083836138e5565b60208301905092915050565b6000602082019050919050565b6000613924826138b9565b61392e81856138c4565b9350613939836138d5565b8060005b8381101561396a57815161395188826138f4565b975061395c8361390c565b92505060018101905061393d565b5085935050505092915050565b600060208201905081810360008301526139918184613919565b905092915050565b6000602082840312156139af576139ae61331b565b5b60006139bd84828501613571565b91505092915050565b6000602082840312156139dc576139db61331b565b5b60006139ea84828501613667565b91505092915050565b600081519050919050565b600082825260208201905092915050565b6000613a1a826139f3565b613a2481856139fe565b9350613a348185602086016133fc565b613a3d8161342f565b840191505092915050565b60006020820190508181036000830152613a628184613a0f565b905092915050565b613a73816133aa565b8114613a7e57600080fd5b50565b600081359050613a9081613a6a565b92915050565b60008060408385031215613aad57613aac61331b565b5b6000613abb85828601613571565b9250506020613acc85828601613a81565b9150509250929050565b600080fd5b600080fd5b7f4e487b7100000000000000000000000000000000000000000000000000000000600052604160045260246000fd5b613b188261342f565b810181811067ffffffffffffffff82111715613b3757613b36613ae0565b5b80604052505050565b6000613b4a613311565b9050613b568282613b0f565b919050565b600067ffffffffffffffff821115613b7657613b75613ae0565b5b613b7f8261342f565b9050602081019050919050565b82818337600083830152505050565b6000613bae613ba984613b5b565b613b40565b905082815260208101848484011115613bca57613bc9613adb565b5b613bd5848285613b8c565b509392505050565b600082601f830112613bf257613bf1613ad6565b5b8135613c02848260208601613b9b565b91505092915050565b60008060008060808587031215613c2557613c2461331b565b5b6000613c3387828801613571565b9450506020613c4487828801613571565b9350506040613c55878288016134bc565b925050606085013567ffffffffffffffff811115613c7657613c75613320565b5b613c8287828801613bdd565b91505092959194509250565b60008060408385031215613ca557613ca461331b565b5b6000613cb385828601613571565b9250506020613cc485828601613571565b9150509250929050565b60008060008060008060c08789031215613ceb57613cea61331b565b5b6000613cf989828a01613667565b9650506020613d0a89828a01613667565b9550506040613d1b89828a01613667565b9450506060613d2c89828a01613667565b9350506080613d3d89828a01613667565b92505060a0613d4e89828a01613667565b9150509295509295509295565b7f4e487b7100000000000000000000000000000000000000000000000000000000600052602260045260246000fd5b60006002820490506001821680613da257607f821691505b60208210811415613db657613db5613d5b565b5b50919050565b7f4552433732313a20617070726f76616c20746f2063757272656e74206f776e6560008201527f7200000000000000000000000000000000000000000000000000000000000000602082015250565b6000613e186021836133eb565b9150613e2382613dbc565b604082019050919050565b60006020820190508181036000830152613e4781613e0b565b9050919050565b7f4552433732313a20617070726f76652063616c6c6572206973206e6f7420746f60008201527f6b656e206f776e6572206f7220617070726f76656420666f7220616c6c000000602082015250565b6000613eaa603d836133eb565b9150613eb582613e4e565b604082019050919050565b60006020820190508181036000830152613ed981613e9d565b9050919050565b7f4552433732313a2063616c6c6572206973206e6f7420746f6b656e206f776e6560008201527f72206f7220617070726f76656400000000000000000000000000000000000000602082015250565b6000613f3c602d836133eb565b9150613f4782613ee0565b604082019050919050565b60006020820190508181036000830152613f6b81613f2f565b9050919050565b7f455243373231456e756d657261626c653a206f776e657220696e646578206f7560008201527f74206f6620626f756e6473000000000000000000000000000000000000000000602082015250565b6000613fce602b836133eb565b9150613fd982613f72565b604082019050919050565b60006020820190508181036000830152613ffd81613fc1565b9050919050565b7f52656374616e676c65732363726561746f724f6e6c793a204f4e4c595f43524560008201527f41544f525f414c4c4f5745440000000000000000000000000000000000000000602082015250565b6000614060602c836133eb565b915061406b82614004565b604082019050919050565b6000602082019050818103600083015261408f81614053565b9050919050565b7f4e487b7100000000000000000000000000000000000000000000000000000000600052601160045260246000fd5b60006140d08261349b565b91506140db8361349b565b9250827fffffffffffffffffffffffffffffffffffffffffffffffffffffffffffffffff038211156141105761410f614096565b5b828201905092915050565b7f4e487b7100000000000000000000000000000000000000000000000000000000600052603260045260246000fd5b60006141558261349b565b91507fffffffffffffffffffffffffffffffffffffffffffffffffffffffffffffffff82141561418857614187614096565b5b600182019050919050565b7f455243373231456e756d657261626c653a20676c6f62616c20696e646578206f60008201527f7574206f6620626f756e64730000000000000000000000000000000000000000602082015250565b60006141ef602c836133eb565b91506141fa82614193565b604082019050919050565b6000602082019050818103600083015261421e816141e2565b9050919050565b7f4552433732313a20696e76616c696420746f6b656e2049440000000000000000600082015250565b600061425b6018836133eb565b915061426682614225565b602082019050919050565b6000602082019050818103600083015261428a8161424e565b9050919050565b7f4552433732313a2061646472657373207a65726f206973206e6f74206120766160008201527f6c6964206f776e65720000000000000000000000000000000000000000000000602082015250565b60006142ed6029836133eb565b91506142f882614291565b604082019050919050565b6000602082019050818103600083015261431c816142e0565b9050919050565b7f52656374616e676c65733a2055524920717565727920666f72206e6f6e65786960008201527f7374656e7420746f6b656e000000000000000000000000000000000000000000602082015250565b600061437f602b836133eb565b915061438a82614323565b604082019050919050565b600060208201905081810360008301526143ae81614372565b9050919050565b600081905092915050565b7f7b226e616d65223a2236342052656374616e676c657320230000000000000000600082015250565b60006143f66018836143b5565b9150614401826143c0565b601882019050919050565b6000614417826133e0565b61442181856143b5565b93506144318185602086016133fc565b80840191505092915050565b7f222c226465736372697074696f6e223a225468697320697320612067656e657260008201527f6174697665206172742e222c0000000000000000000000000000000000000000602082015250565b6000614499602c836143b5565b91506144a48261443d565b602c82019050919050565b7f22696d616765223a22646174613a696d6167652f7376672b786d6c3b6261736560008201527f36342c0000000000000000000000000000000000000000000000000000000000602082015250565b600061450b6023836143b5565b9150614516826144af565b602382019050919050565b7f222c2265787465726e616c5f75726c223a202268747470733a2f2f6b6974617360008201527f656e6a7564657369676e2e636f6d2f72656374732f222c000000000000000000602082015250565b600061457d6037836143b5565b915061458882614521565b603782019050919050565b7f22616e696d6174696f6e5f75726c223a22646174613a746578742f68746d6c3b60008201527f6261736536342c00000000000000000000000000000000000000000000000000602082015250565b60006145ef6027836143b5565b91506145fa82614593565b602782019050919050565b7f222c000000000000000000000000000000000000000000000000000000000000600082015250565b600061463b6002836143b5565b915061464682614605565b600282019050919050565b7f2261747472696275746573223a205b5d7d000000000000000000000000000000600082015250565b60006146876011836143b5565b915061469282614651565b601182019050919050565b60006146a8826143e9565b91506146b4828661440c565b91506146bf8261448c565b91506146ca826144fe565b91506146d6828561440c565b91506146e182614570565b91506146ec826145e2565b91506146f8828461440c565b91506147038261462e565b915061470e8261467a565b9150819050949350505050565b7f646174613a6170706c69636174696f6e2f6a736f6e2c00000000000000000000600082015250565b60006147516016836143b5565b915061475c8261471b565b601682019050919050565b600081905092915050565b600061477d826139f3565b6147878185614767565b93506147978185602086016133fc565b80840191505092915050565b60006147ae82614744565b91506147ba8284614772565b915081905092915050565b7f5061757361626c653a2070617573656400000000000000000000000000000000600082015250565b60006147fb6010836133eb565b9150614806826147c5565b602082019050919050565b6000602082019050818103600083015261482a816147ee565b9050919050565b7f4d6178696d756d20737570706c7920726561636865642e000000000000000000600082015250565b60006148676017836133eb565b915061487282614831565b602082019050919050565b600060208201905081810360008301526148968161485a565b9050919050565b7f4e6f7420656e6f7567682045746865722073656e742e00000000000000000000600082015250565b60006148d36016836133eb565b91506148de8261489d565b602082019050919050565b60006020820190508181036000830152614902816148c6565b9050919050565b7f4f776e61626c653a206e6577206f776e657220697320746865207a65726f206160008201527f6464726573730000000000000000000000000000000000000000000000000000602082015250565b60006149656026836133eb565b915061497082614909565b604082019050919050565b6000602082019050818103600083015261499481614958565b9050919050565b7f4552433732313a207472616e736665722066726f6d20696e636f72726563742060008201527f6f776e6572000000000000000000000000000000000000000000000000000000602082015250565b60006149f76025836133eb565b9150614a028261499b565b604082019050919050565b60006020820190508181036000830152614a26816149ea565b9050919050565b7f4552433732313a207472616e7366657220746f20746865207a65726f2061646460008201527f7265737300000000000000000000000000000000000000000000000000000000602082015250565b6000614a896024836133eb565b9150614a9482614a2d565b604082019050919050565b60006020820190508181036000830152614ab881614a7c565b9050919050565b7f4f776e61626c653a2063616c6c6572206973206e6f7420746865206f776e6572600082015250565b6000614af56020836133eb565b9150614b0082614abf565b602082019050919050565b60006020820190508181036000830152614b2481614ae8565b9050919050565b7f4552433732313a20617070726f766520746f2063616c6c657200000000000000600082015250565b6000614b616019836133eb565b9150614b6c82614b2b565b602082019050919050565b60006020820190508181036000830152614b9081614b54565b9050919050565b7f4552433732313a207472616e7366657220746f206e6f6e20455243373231526560008201527f63656976657220696d706c656d656e7465720000000000000000000000000000602082015250565b6000614bf36032836133eb565b9150614bfe82614b97565b604082019050919050565b60006020820190508181036000830152614c2281614be6565b9050919050565b7f4e487b7100000000000000000000000000000000000000000000000000000000600052601260045260246000fd5b6000614c6382613643565b9150614c6e83613643565b925082614c7e57614c7d614c29565b5b828206905092915050565b6000614c9482613643565b9150614c9f83613643565b925082614caf57614cae614c29565b5b828204905092915050565b7f3c73766720786d6c6e733d22687474703a2f2f7777772e77332e6f72672f323060008201527f30302f737667222076696577426f783d2230203020313030203130302220737460208201527f796c653d226261636b67726f756e642d636f6c6f723a233838383b223e3c737460408201527f796c653e406b65796672616d657320616e696d207b30257b206f70616369747960608201527f3a20303b7d20313030257b206f7061636974793a20313b7d7d3c2f7374796c6560808201527f3e3c726563742077696474683d2200000000000000000000000000000000000060a082015250565b6000614dae60ae836143b5565b9150614db982614cba565b60ae82019050919050565b7f22206865696768743d2200000000000000000000000000000000000000000000600082015250565b6000614dfa600a836143b5565b9150614e0582614dc4565b600a82019050919050565b7f2220783d22000000000000000000000000000000000000000000000000000000600082015250565b6000614e466005836143b5565b9150614e5182614e10565b600582019050919050565b7f2220793d22000000000000000000000000000000000000000000000000000000600082015250565b6000614e926005836143b5565b9150614e9d82614e5c565b600582019050919050565b7f22207374796c653d2266696c6c3a000000000000000000000000000000000000600082015250565b6000614ede600e836143b5565b9150614ee982614ea8565b600e82019050919050565b7f3b22202f3e3c726563742077696474683d220000000000000000000000000000600082015250565b6000614f2a6012836143b5565b9150614f3582614ef4565b601282019050919050565b7f3b616e696d6174696f6e3a20616e696d20000000000000000000000000000000600082015250565b6000614f766011836143b5565b9150614f8182614f40565b601182019050919050565b7f306d7320696e66696e697465206c696e65617220616c7465726e6174653b222060008201527f2f3e3c2f7376673e000000000000000000000000000000000000000000000000602082015250565b6000614fe86028836143b5565b9150614ff382614f8c565b602882019050919050565b600061500982614da1565b9150615015828e61440c565b915061502082614ded565b915061502c828d61440c565b915061503782614e39565b9150615043828c61440c565b915061504e82614e85565b915061505a828b61440c565b915061506582614ed1565b9150615071828a614772565b915061507c82614f1d565b9150615088828961440c565b915061509382614ded565b915061509f828861440c565b91506150aa82614e39565b91506150b6828761440c565b91506150c182614e85565b91506150cd828661440c565b91506150d882614ed1565b91506150e48285614772565b91506150ef82614f69565b91506150fb828461440c565b915061510682614fdb565b91508190509c9b505050505050505050505050565b60006151268261349b565b91506151318361349b565b92508261514157615140614c29565b5b828204905092915050565b60006151578261349b565b91506151628361349b565b9250817fffffffffffffffffffffffffffffffffffffffffffffffffffffffffffffffff048311821515161561519b5761519a614096565b5b828202905092915050565b7f3c21444f43545950452068746d6c3e3c68746d6c3e3c686561643e3c7469746c60008201527f653e36342052656374616e676c65733c2f7469746c653e3c7374796c653e626f60208201527f6479207b206261636b67726f756e643a233838383b6f766572666c6f773a686960408201527f6464656e3b666f6e742d73697a653a3370783b666f6e742d66616d696c793a7360608201527f616e732d73657269663b207d2023636f6e7461696e65727b706f736974696f6e60808201527f3a6162736f6c7574653b6c6566743a303b746f703a303b7472616e73666f726d60a08201527f2d6f726967696e3a203020303b7d202e726563747b2020646973706c61793a6660c08201527f6c65783b20616c69676e2d6974656d733a63656e7465723b206a75737469667960e08201527f2d636f6e74656e743a63656e7465723b206f766572666c6f773a68696464656e6101008201527f3b20706f736974696f6e3a206162736f6c7574653b616e696d6174696f6e3a206101208201527f616e696d6520317320696e66696e69746520616c7465726e61746520656173656101408201527f2d696e2d6f75743b7d20406b65796672616d657320616e696d657b66726f6d206101608201527f7b6f7061636974793a20303b7d20746f207b6f7061636974793a20313b7d7d206101808201527f3c2f7374796c653e3c7363726970743e000000000000000000000000000000006101a082015250565b60006153d16101b0836143b5565b91506153dc826151a6565b6101b082019050919050565b7f3c2f7363726970743e3c2f686561643e3c626f64793e3c6469762069643d276360008201527f6f6e7461696e6572273e3c2f6469763e3c2f626f64793e3c2f68746d6c3e0000602082015250565b6000615444603e836143b5565b915061544f826153e8565b603e82019050919050565b6000615465826153c3565b91506154718285614772565b915061547d8284614772565b915061548882615437565b91508190509392505050565b7f455243373231456e756d657261626c653a20636f6e736563757469766520747260008201527f616e7366657273206e6f7420737570706f727465640000000000000000000000602082015250565b60006154f06035836133eb565b91506154fb82615494565b604082019050919050565b6000602082019050818103600083015261551f816154e3565b9050919050565b600060808201905061553b6000830187613530565b6155486020830186613530565b61555560408301856135c6565b81810360608301526155678184613a0f565b905095945050505050565b60008151905061558181613351565b92915050565b60006020828403121561559d5761559c61331b565b5b60006155ab84828501615572565b91505092915050565b7f5b00000000000000000000000000000000000000000000000000000000000000600082015250565b60006155ea6001836143b5565b91506155f5826155b4565b600182019050919050565b7f2c00000000000000000000000000000000000000000000000000000000000000600082015250565b60006156366001836143b5565b915061564182615600565b600182019050919050565b7f5d2c000000000000000000000000000000000000000000000000000000000000600082015250565b60006156826002836143b5565b915061568d8261564c565b600282019050919050565b60006156a4828a614772565b91506156af826155dd565b91506156bb828961440c565b91506156c682615629565b91506156d2828861440c565b91506156dd82615629565b91506156e9828761440c565b91506156f482615629565b9150615700828661440c565b915061570b82615629565b9150615717828561440c565b915061572282615629565b915061572e828461440c565b915061573982615675565b915081905098975050505050505050565b7f5d3b000000000000000000000000000000000000000000000000000000000000600082015250565b60006157806002836143b5565b915061578b8261574a565b600282019050919050565b60006157a28284614772565b91506157ad82615773565b915081905092915050565b7f77696e646f772e6f6e6c6f61643d28293d3e7b76617220636f6c73203d205b2260008201527f23303030222c2223663030222c2223306630222c2223303066222c222366663060208201527f222c2223663066222c2223306666222c2223666666225d3b76617220636f6e7460408201527f61696e6572203d20646f63756d656e742e676574456c656d656e74427949642860608201527f22636f6e7461696e657222293b666f72286c657420693d303b693c6a736f6e7360808201527f2e6c656e6774683b692b2b297b6c65742064203d206a736f6e735b695d3b6c6560a08201527f7420647631203d20646f63756d656e742e637265617465456c656d656e74282760c08201527f64697627293b6c657420647632203d20646f63756d656e742e6372656174654560e08201527f6c656d656e74282764697627293b6c65742064763173203d206476312e7374796101008201527f6c653b6c65742064763273203d206476322e7374796c653b6476312e636c61736101208201527f734c6973742e61646428227265637422293b6476312e696e6e657254657874206101408201527f3d2022222b693b647631732e6c65667420203d647632732e6c6566742020203d6101608201527f645b305d2b227078223b647631732e746f702020203d647632732e746f7020206101808201527f20203d645b315d2b227078223b647631732e7769647468203d647632732e77696101a08201527f64746820203d645b325d2b227078223b647631732e6865696768743d647632736101c08201527f2e686569676874203d645b335d2b227078223b647631732e616e696d6174696f6101e08201527f6e4475726174696f6e3d28645b355d292b22306d73223b647631732e6261636b6102008201527f67726f756e64436f6c6f723d636f6c735b4d6174682e666c6f6f7228645b345d6102208201527f2f3130295d3b647631732e7a496e646578203d2022222b28692a32293b6476326102408201527f732e706f736974696f6e203d20226162736f6c757465223b647632732e7a496e6102608201527f646578203d2022222b28692a322d31293b647632732e6261636b67726f756e646102808201527f436f6c6f723d636f6c735b645b345d2531305d3b636f6e7461696e65722e61706102a08201527f70656e644368696c6428647631293b636f6e7461696e65722e617070656e64436102c08201527f68696c6428647632293b7d72737a28293b77696e646f772e6164644576656e746102e08201527f4c697374656e65722822726573697a65222c72737a293b66756e6374696f6e206103008201527f72737a2865297b6c6574207331203d2077696e646f772e696e6e6572576964746103208201527f682f3130303b6c6574207332203d2077696e646f772e696e6e657248656967686103408201527f742f3130303b636f6e7461696e65722e7374796c652e7472616e73666f726d3d6103608201527f607363616c6528247b73317d2c247b73327d29603b7d7d00000000000000000061038082015250565b6000615c2c610397836143b5565b9150615c37826157b8565b61039782019050919050565b6000615c4e82615c1e565b9150819050919050565b6000615c638261349b565b9150615c6e8361349b565b925082821015615c8157615c80614096565b5b828203905092915050565b7f4e487b7100000000000000000000000000000000000000000000000000000000600052603160045260246000fd5b7f4552433732313a206d696e7420746f20746865207a65726f2061646472657373600082015250565b6000615cf16020836133eb565b9150615cfc82615cbb565b602082019050919050565b60006020820190508181036000830152615d2081615ce4565b9050919050565b7f4552433732313a20746f6b656e20616c7265616479206d696e74656400000000600082015250565b6000615d5d601c836133eb565b9150615d6882615d27565b602082019050919050565b60006020820190508181036000830152615d8c81615d50565b905091905056fe4142434445464748494a4b4c4d4e4f505152535455565758595a6162636465666768696a6b6c6d6e6f707172737475767778797a303132333435363738392b2fa26469706673582212209e0561aac6eb41680834038804f19c5a820c91b140761e63a90adc20f94e05c564736f6c634300080c0033",
  "linkReferences": {},
  "deployedLinkReferences": {}
}